{
  "contractName": "TaskContract",
  "abi": [
    {
      "anonymous": false,
      "inputs": [
        {
          "indexed": false,
          "internalType": "address",
          "name": "recipient",
          "type": "address"
        },
        {
          "indexed": false,
          "internalType": "uint256",
          "name": "taskId",
          "type": "uint256"
        }
      ],
      "name": "AddTask",
      "type": "event"
    },
    {
      "anonymous": false,
      "inputs": [
        {
          "indexed": false,
          "internalType": "uint256",
          "name": "taskId",
          "type": "uint256"
        },
        {
          "indexed": false,
          "internalType": "bool",
          "name": "isDeleted",
          "type": "bool"
        }
      ],
      "name": "DeleteTask",
      "type": "event"
    },
    {
      "inputs": [
        {
          "internalType": "string",
          "name": "taskText",
          "type": "string"
        },
        {
          "internalType": "bool",
          "name": "isDeleted",
          "type": "bool"
        }
      ],
      "name": "addTask",
      "outputs": [],
      "stateMutability": "nonpayable",
      "type": "function"
    },
    {
      "inputs": [],
      "name": "getMyTasks",
      "outputs": [
        {
          "components": [
            {
              "internalType": "uint256",
              "name": "id",
              "type": "uint256"
            },
            {
              "internalType": "string",
              "name": "taskText",
              "type": "string"
            },
            {
              "internalType": "bool",
              "name": "isDeleted",
              "type": "bool"
            }
          ],
          "internalType": "struct TaskContract.Task[]",
          "name": "",
          "type": "tuple[]"
        }
      ],
      "stateMutability": "view",
      "type": "function",
      "constant": true
    },
    {
      "inputs": [
        {
          "internalType": "uint256",
          "name": "taskId",
          "type": "uint256"
        },
        {
          "internalType": "bool",
          "name": "isDeleted",
          "type": "bool"
        }
      ],
      "name": "deleteTask",
      "outputs": [],
      "stateMutability": "nonpayable",
      "type": "function"
    }
  ],
  "bytecode": "0x608060405234801561001057600080fd5b50610eb9806100206000396000f3fe608060405234801561001057600080fd5b50600436106100415760003560e01c806320df4581146100465780636e13f81814610062578063aaba290714610080575b600080fd5b610060600480360381019061005b919061074c565b61009c565b005b61006a6101bf565b604051610077919061096a565b60405180910390f35b61009a600480360381019061009591906109b8565b6104b6565b005b60008080549050905060006040518060600160405280838152602001858152602001841515815250908060018154018082558091505060019003906000526020600020906003020160009091909190915060008201518160000155602082015181600101908161010c9190610c04565b5060408201518160020160006101000a81548160ff0219169083151502179055505050336001600083815260200190815260200160002060006101000a81548173ffffffffffffffffffffffffffffffffffffffff021916908373ffffffffffffffffffffffffffffffffffffffff1602179055507f1f54e1ba1832d428fbd7e7792beaf62b1fc5a382c207ffd614209c1413e94fda33826040516101b2929190610d26565b60405180910390a1505050565b60606000808054905067ffffffffffffffff8111156101e1576101e06105e9565b5b60405190808252806020026020018201604052801561021a57816020015b610207610597565b8152602001906001900390816101ff5790505b5090506000805b6000805490508110156103fc573373ffffffffffffffffffffffffffffffffffffffff166001600083815260200190815260200160002060009054906101000a900473ffffffffffffffffffffffffffffffffffffffff1673ffffffffffffffffffffffffffffffffffffffff161480156102d2575060001515600082815481106102af576102ae610d4f565b5b906000526020600020906003020160020160009054906101000a900460ff161515145b156103e957600081815481106102eb576102ea610d4f565b5b90600052602060002090600302016040518060600160405290816000820154815260200160018201805461031e90610a27565b80601f016020809104026020016040519081016040528092919081815260200182805461034a90610a27565b80156103975780601f1061036c57610100808354040283529160200191610397565b820191906000526020600020905b81548152906001019060200180831161037a57829003601f168201915b505050505081526020016002820160009054906101000a900460ff1615151515815250508383815181106103ce576103cd610d4f565b5b60200260200101819052506001826103e69190610dad565b91505b80806103f490610e03565b915050610221565b5060008167ffffffffffffffff811115610419576104186105e9565b5b60405190808252806020026020018201604052801561045257816020015b61043f610597565b8152602001906001900390816104375790505b50905060005b828110156104ac5783818151811061047357610472610d4f565b5b602002602001015182828151811061048e5761048d610d4f565b5b602002602001018190525080806104a490610e03565b915050610458565b5080935050505090565b3373ffffffffffffffffffffffffffffffffffffffff166001600084815260200190815260200160002060009054906101000a900473ffffffffffffffffffffffffffffffffffffffff1673ffffffffffffffffffffffffffffffffffffffff160361059357806000838154811061053157610530610d4f565b5b906000526020600020906003020160020160006101000a81548160ff0219169083151502179055507ff88a35c3d2016c409a46570b994a17b408dbc83c14a03f521512d50b85386d06828260405161058a929190610e5a565b60405180910390a15b5050565b604051806060016040528060008152602001606081526020016000151581525090565b6000604051905090565b600080fd5b600080fd5b600080fd5b600080fd5b6000601f19601f8301169050919050565b7f4e487b7100000000000000000000000000000000000000000000000000000000600052604160045260246000fd5b610621826105d8565b810181811067ffffffffffffffff821117156106405761063f6105e9565b5b80604052505050565b60006106536105ba565b905061065f8282610618565b919050565b600067ffffffffffffffff82111561067f5761067e6105e9565b5b610688826105d8565b9050602081019050919050565b82818337600083830152505050565b60006106b76106b284610664565b610649565b9050828152602081018484840111156106d3576106d26105d3565b5b6106de848285610695565b509392505050565b600082601f8301126106fb576106fa6105ce565b5b813561070b8482602086016106a4565b91505092915050565b60008115159050919050565b61072981610714565b811461073457600080fd5b50565b60008135905061074681610720565b92915050565b60008060408385031215610763576107626105c4565b5b600083013567ffffffffffffffff811115610781576107806105c9565b5b61078d858286016106e6565b925050602061079e85828601610737565b9150509250929050565b600081519050919050565b600082825260208201905092915050565b6000819050602082019050919050565b6000819050919050565b6107e7816107d4565b82525050565b600081519050919050565b600082825260208201905092915050565b60005b8381101561082757808201518184015260208101905061080c565b83811115610836576000848401525b50505050565b6000610847826107ed565b61085181856107f8565b9350610861818560208601610809565b61086a816105d8565b840191505092915050565b61087e81610714565b82525050565b600060608301600083015161089c60008601826107de565b50602083015184820360208601526108b4828261083c565b91505060408301516108c96040860182610875565b508091505092915050565b60006108e08383610884565b905092915050565b6000602082019050919050565b6000610900826107a8565b61090a81856107b3565b93508360208202850161091c856107c4565b8060005b85811015610958578484038952815161093985826108d4565b9450610944836108e8565b925060208a01995050600181019050610920565b50829750879550505050505092915050565b6000602082019050818103600083015261098481846108f5565b905092915050565b610995816107d4565b81146109a057600080fd5b50565b6000813590506109b28161098c565b92915050565b600080604083850312156109cf576109ce6105c4565b5b60006109dd858286016109a3565b92505060206109ee85828601610737565b9150509250929050565b7f4e487b7100000000000000000000000000000000000000000000000000000000600052602260045260246000fd5b60006002820490506001821680610a3f57607f821691505b602082108103610a5257610a516109f8565b5b50919050565b60008190508160005260206000209050919050565b60006020601f8301049050919050565b600082821b905092915050565b600060088302610aba7fffffffffffffffffffffffffffffffffffffffffffffffffffffffffffffffff82610a7d565b610ac48683610a7d565b95508019841693508086168417925050509392505050565b6000819050919050565b6000610b01610afc610af7846107d4565b610adc565b6107d4565b9050919050565b6000819050919050565b610b1b83610ae6565b610b2f610b2782610b08565b848454610a8a565b825550505050565b600090565b610b44610b37565b610b4f818484610b12565b505050565b5b81811015610b7357610b68600082610b3c565b600181019050610b55565b5050565b601f821115610bb857610b8981610a58565b610b9284610a6d565b81016020851015610ba1578190505b610bb5610bad85610a6d565b830182610b54565b50505b505050565b600082821c905092915050565b6000610bdb60001984600802610bbd565b1980831691505092915050565b6000610bf48383610bca565b9150826002028217905092915050565b610c0d826107ed565b67ffffffffffffffff811115610c2657610c256105e9565b5b610c308254610a27565b610c3b828285610b77565b600060209050601f831160018114610c6e5760008415610c5c578287015190505b610c668582610be8565b865550610cce565b601f198416610c7c86610a58565b60005b82811015610ca457848901518255600182019150602085019450602081019050610c7f565b86831015610cc15784890151610cbd601f891682610bca565b8355505b6001600288020188555050505b505050505050565b600073ffffffffffffffffffffffffffffffffffffffff82169050919050565b6000610d0182610cd6565b9050919050565b610d1181610cf6565b82525050565b610d20816107d4565b82525050565b6000604082019050610d3b6000830185610d08565b610d486020830184610d17565b9392505050565b7f4e487b7100000000000000000000000000000000000000000000000000000000600052603260045260246000fd5b7f4e487b7100000000000000000000000000000000000000000000000000000000600052601160045260246000fd5b6000610db8826107d4565b9150610dc3836107d4565b9250827fffffffffffffffffffffffffffffffffffffffffffffffffffffffffffffffff03821115610df857610df7610d7e565b5b828201905092915050565b6000610e0e826107d4565b91507fffffffffffffffffffffffffffffffffffffffffffffffffffffffffffffffff8203610e4057610e3f610d7e565b5b600182019050919050565b610e5481610714565b82525050565b6000604082019050610e6f6000830185610d17565b610e7c6020830184610e4b565b939250505056fea2646970667358221220155f5cb5b89763a91cbf557f5f85af4f9fa5754cd7d3fe4f9bf86c34f05ba38e64736f6c634300080f0033",
  "immutableReferences": {},
  "source": "// SPDX-License-Identifier: MIT\npragma solidity 0.8.15;\n\n// Deployed Contract Address\n//ABI\n\ncontract TaskContract {\n  event AddTask(address recipient , uint taskId);\n  event DeleteTask(uint taskId, bool isDeleted);\n   \n  struct Task {\n    uint id;\n    string taskText;\n    bool isDeleted;\n  }\n  //The tasks array to contain all our tasks.\n  Task[] private tasks;\n  //represents a key and a address of the owners of the contract.\n  mapping(uint256 => address) taskToOwner;\n\n  function addTask(string memory taskText, bool isDeleted) external {\n    uint taskId = tasks.length;\n    tasks.push(Task(taskId,taskText,isDeleted));\n    taskToOwner[taskId] = msg.sender;\n    emit AddTask(msg.sender,taskId);\n  }\n  //get tasks that are of the current owner.\n  function getMyTasks() external view returns (Task[] memory){\n    Task[] memory temporary = new Task[](tasks.length);\n    uint counter = 0;\n    for(uint i = 0; i < tasks.length; i++){\n      if(taskToOwner[i] == msg.sender && tasks[i].isDeleted == false){\n        temporary[counter] = (tasks[i]);\n        counter += 1;\n      }\n    }\n    Task[] memory result = new Task[](counter);\n    for(uint i =0; i < counter; i++){\n      result[i] = temporary[i];\n    }\n    return result;\n  }\n  function deleteTask(uint taskId,bool isDeleted) external {\n    if(taskToOwner[taskId] == msg.sender){\n      tasks[taskId].isDeleted = isDeleted;\n      emit DeleteTask(taskId,isDeleted);\n    }\n  }\n \n\n}\n",
  "sourcePath": "D:\\Todo\\backend\\contracts\\TaskContract.sol",
  "compiler": {
    "name": "solc",
    "version": "0.8.15+commit.e14f2714.Emscripten.clang"
  },
  "schemaVersion": "3.4.16",
  "updatedAt": "2023-11-19T19:01:10.358Z",
  "networkType": "ethereum",
  "devdoc": {
    "kind": "dev",
    "methods": {},
    "version": 1
  },
  "userdoc": {
    "kind": "user",
    "methods": {},
    "version": 1
  }
}